:100000000C94CC020C9400280C9404030C9404036C
:100010000C9404030C9404030C9404030C94040344
:100020000C9404030C9404030C94DF210C949B2186
:100030000C94DC220C9404030C9404030C9404032D
:100040000C9404030C9404030C9404030C94040314
:100050000C9404030C94B8220C9404030C94040331
:100060000C9404030C9404030C9404030C940403F4
:100070000C9404030C9404030C9404030C940403E4
:100080000C9404030C9404030C9404030C940403D4
:100090000C9404030C9404030C9404030C940403C4
:1000A0000C9404030C9404030C94040329001E0014
:1000B0001F002000210022002B0014001A0008005D
:1000C00015001700E00004001600070009000A00F0
:1000D000E1001D001B0006001900050000000000E3
:1000E000E3002C00215229002A00270026002500C9
:1000F000240023003100130012000C0018001C0023
:10010000340033000F000E000D000B0028003800F3
:10011000370036001000110000000000E6002C003F
:100120002252E70035021E021F0220022102220293
:10013000007C1E001F002000210022004C00010056
:1001400050004F0052002F0005780100010001000F
:1001500051002F0200000000010001004C002602A7
:100160002A00270226022502240223022E0027004D
:10017000260025002400230031022E025E005D00CF
:100180005C00300001002D005B005A005900300275
:1001900000000000620023524C00270245003A0094
:1001A0003B003C003D003E0020781E021F02200262
:1001B000210222022178AC00AB00A9004B002D02E5
:1001C000A800AD00AE00AA004E002D000000000007
:1001D0000100235201002602440043004200410076
:1001E00040003F002E00270226022502240223029F
:1001F0000100B4004F005200510050000100000007
:10020000300A2F0A28000000000000000100010051
:1002100001000100010001000100010001000100D6
:1002200001000100010001000100010001000100C6
:1002300001000100010001000100010001000100B6
:1002400001000100000000000100010001000100A8
:100250000100010001000100010001000100010096
:100260000100010001000100010001000100010086
:100270000100010001000100010001000100010076
:100280000000000001000100010001001E0F050038
:10029000047F3F1F643214643214783C1E1E140A1B
:1002A0000500010101010101010101020202020236
:1002B000020202020303030303030303040404040E
:1002C00004040405050505050606060606070707D6
:1002D000070708080808090909090A0A0A0B0B0B8D
:1002E0000C0C0C0D0D0D0E0E0E0F0F0F101011112A
:1002F00011121213131414151516161717181819AE
:10030000191A1A1B1B1C1D1D1E1E1F202021222214
:10031000232424252626272829292A2B2C2D2D2E57
:100320002F30313232333435363738393A3B3C3D71
:100330003E3F404142434445464748494A4C4D4E62
:100340004F50515354555658595A5B5D5E5F616228
:1003500064656668696B6C6D6F7072737577787AB7
:100360007B7D7E8082838587888A8C8E8F91939512
:1003700096989A9C9EA0A2A3A5A7A9ABADAFB1B336
:10038000B5B7BABCBEC0C2C4C6C9CBCDCFD1D4D616
:10039000D8DBDDDFE2E4E7E9EBEEF0F3F5F8FAFDB8
:1003A000FFFFAA7F55402223252628292A2C2D2FFE
:1003B0003032333536383A3B3D3E4042434547497B
:1003C0004A4C4E5051535557595A5C5E60626466B0
:1003D00068696B6D6F71737577797B7D7F818385BC
:1003E00087898A8C8E90929496989A9C9E9FA1A3BE
:1003F000A5A7A8AAACAEAFB1B3B4B6B8B9BBBCBEE2
:10040000BFC1C2C3C5C6C7C9CACBCCCDCED0D1D25D
:10041000D2D3D4D5D6D7D7D8D9D9DADADBDBDBDC5F
:10042000DCDCDCDCDDDDDDDDDCDCDCDCDCDBDBDB0B
:10043000DADAD9D9D8D7D7D6D5D4D3D2D2D1D0CE6B
:10044000CDCCCBCAC9C7C6C5C3C2C1BFBEBCBBB970
:10045000B8B6B4B3B1AFAEACAAA8A7A5A3A19F9EEE
:100460009C9A98969492908E8C8A89878583817FB6
:100470007D7B79777573716F6D6B69686664626097
:100480005E5C5A5957555351504E4C4A4947454363
:1004900042403E3D3B3A3836353332302F2D2C2A00
:1004A00029282625232205010980A1018503190198
:1004B0002AB700150126B700950175108100C00507
:1004C0000C0901A101850419012AA002150126A029
:1004D00002950175108100C005010906A1010507FB
:1004E00019E029E71500250195087501810295019C
:1004F000750881010507190029FF150026FF0095E1
:1005000006750881000508190129051500250195C2
:100510000575019102950175039101C009023B0027
:10052000020100A0FA0904000001030101000921F1
:10053000110100012244000705810308000109049C
:100540000100010300000009211101000122320015
:1005500007058203200001120100020000000810BC
:10056000CB564200040102000118034900720069E1
:1005700000730020005200650076002E0020003439
:100580000000000E034B0065006500620069006F0B
:10059000000000040309040011241FBECFEFDAE0BD
:1005A000DEBFCDBF04B603FE18C0809177039091E3
:1005B0007803A0917903B0917A038730904BA740DC
:1005C000B04B59F41092770310927803109279038C
:1005D00010927A03E0E0F8E3099523E0AAEEB1E097
:1005E00001C01D92A737B207E1F711E0A0E0B1E02A
:1005F000E0E0F7E502C005900D92AA3EB107D9F7F9
:100600000E9403230C942A2B0C940000482F209165
:10061000730390913A0357E0291302C080E00895D4
:1006200030E0529FF001539FF00D1124E55CFC4F28
:100630008181681306C08081481303C085818111C0
:10064000EECF2F5F3F4F2770E7CFE8EDF0E08081DE
:100650008E7F80831092E2001092DA001092E10007
:10066000A0EEB0E08C9181608C9380818F77808345
:1006700019BCA7EDB0E08C918E7F8C9380818F7E2A
:1006800080831092230308952091E4003091E500C7
:1006900095E6A9012091EC00822F817020FF06C011
:1006A0008091E80080FF06C080E008952091E80076
:1006B00022FD1AC080913003882389F0853089F0AB
:1006C0008091EB0085FD0FC02091E4003091E500A2
:1006D00042175307F9F29150E1F684E0089582E061
:1006E000089583E0089581E008958091320387FFA3
:1006F00013C08091E80082FF06C08091E8008B77EC
:100700008093E80004C0809130038111F2CF0895F6
:10071000809130038823D9F38091E80080FFF8CFDF
:100720008091E8008E77ECCF982F9093E900242FEA
:10073000762F50E0891731F07091EC002091ED0098
:100740005091F00021FD07C09F5F973071F78093B3
:10075000E90081E008953091EB003E7F3093EB009B
:100760003091ED003D7F3093ED003091EB00316032
:100770003093EB007093EC002093ED005093F00069
:100780002091EE0027FDE0CF80E00895B0E0A0E0EA
:10079000ECECF3E00C942629C8EDD0E088818F7E44
:1007A0008883E7EDF0E080818160808384E082BF10
:1007B00081E08093230388818E7F888302EE10E09E
:1007C000F80110821092DA0081EEC82ED12CF601C9
:1007D000108288818F778883888180688883888168
:1007E0008F7D888319BC10923003109231031092D0
:1007F0002F0310922E0390EEE92EF12CF701808149
:100800008B7F808388818160888342E060E080E024
:100810000E949403F60180818E7F8083F80180819D
:1008200081608083808188608083F70180818E7FF2
:100830008083888180618883CDB7DEB7E8E00C943F
:100840004229FC018091380390913903861797075C
:10085000A0F06115710529F49091E8009E779093BE
:10086000E80090E06115710551F4911108C0809184
:10087000E80082FF34C080E00895BC01F2CF80918F
:1008800030038823C1F18530C1F18091E80083FDF8
:1008900030C08091E80082FDEACF8091E80080FFBF
:1008A000E1CF8091F3002091F200382F611571059E
:1008B00019F02830310558F091E02830310509F061
:1008C00090E02091E8002E772093E800CBCF819133
:1008D0008093F100615071092F5F3F4FE7CF809106
:1008E0003003882341F0853041F08091E80083FF98
:1008F000BECF81E0089582E0089583E008950895D1
:10090000089508958091250308959C014FB7F894A8
:1009100080911F0390912003A0912103B0912203A5
:100920004FBF821B930B08952FB7F89460911F035C
:100930007091200380912103909122032FBF08958D
:100940002FB7F89480911F0390912003A091210369
:10095000B09122032FBF0895EEEEF1E0919189133B
:1009600003C0DF0111971C9291E0E43FF907B1F752
:100970000895AEEEB1E0EFEF90E02D91821751F0C7
:10098000EF3F19F4211101C0E92F9F5F9630A9F7BD
:10099000EF3F09F408950E2E000CFF0BE451FE4FBB
:1009A00082830895A3E0B0E0E8EDF4E00C942C29F4
:1009B00020911C0330911D0328173907A1F0909353
:1009C0001D0380931C03E0911A03F0911B033097E1
:1009D00051F024E029839B838A830084F185E02DF4
:1009E000CE01019609952396E2E00C944829A3E0F4
:1009F000B0E0EDEFF4E00C942C2920911803309135
:100A0000190328173907A1F090931903809318034D
:100A1000E0911A03F0911B03309751F023E02983F2
:100A20009B838A830084F185E02DCE010196099590
:100A30002396E2E00C94482980911603882359F00C
:100A4000E0911A03F0911B03309729F00190F08197
:100A5000E02D0995089580E00895FC01680F791F45
:100A60008FEF91E32191822728E030E087FF09C0D2
:100A7000880F892721503109C9F7E617F70791F741
:100A80000895880FF7CF8F929F92AF92BF92EF9207
:100A9000FF920F931F93CF93DF938630B0F58111B0
:100AA00035C0909180009F7790938000A091860040
:100AB000B0918700282F30E00E941B2B25E030E00A
:100AC00040E050E00E94F92A89019A018091860055
:100AD000909187006CE070E00E947D29601771079B
:100AE000C8F0C80169E070E00E947D297093890018
:100AF00060938800DF91CF911F910F91FF90EF904D
:100B0000BF90AF909F908F90089585E09091800066
:100B10009068CACF8091860090918700E09086000F
:100B2000F0908700E0918600F0918700C6E0D0E069
:100B3000BE010E947D29060F171F211D311D48018E
:100B4000590185E0880C991CAA1CBB1C8A95D1F719
:100B5000C701BE010E947D299F0150E040E0260FA1
:100B6000371F411D511DC501B4010E94F92A4901D9
:100B70005A01E0918600F0918700CA01B9010E94F4
:100B800053299B01AC01DF010E94E62A9B01AC01C5
:100B9000C501B4010E9453292FE09695879577955A
:100BA00067952A95D1F7009186001091870030E073
:100BB00020E0061717072807390708F097CF60913C
:100BC00086007091870092CF863008F085E0909182
:100BD00015039770282F220F220F220F922B90932C
:100BE0001503987F21E009F420E09091150320FB84
:100BF00090F9909315030E9443050895FA0181111D
:100C000001C0FB0109950895E7EAF2E011828281B3
:100C100084608283089580910D03982F9C7F29F42E
:100C20008370846080930D0308958C3AE8F3837099
:100C3000886AF8CFAF92BF92DF92EF92FF920F9344
:100C40001F93CF93DF93082F162FE901E42FF0E0D5
:100C5000EF55FD4F611110C0E4915E2F4E2F498377
:100C6000E8835A83DF91CF911F910F91FF90EF900E
:100C7000DF90BF90AF900895E62EF12C4491D42ED2
:100C8000E42FF0E026E0829FC00111242FEF30E036
:100C9000B9010E947D29802F90E0880F991F55E5AA
:100CA000569FD001579FB00D11248A1B9B0B982F84
:100CB000990F890F5901AE18BF08AE9ED001AF9EA3
:100CC000B00DBE9EB00D11245B2F189F8001112422
:100CD000012F11275901A01AB10AAE9E8001AF9EC3
:100CE000100DBE9E100D11245901A81AB108AE9C1A
:100CF000C001AF9C900DBE9C900D1124892F9927A7
:100D0000281B390B2E9FC0012F9F900D3E9F900DE9
:100D10001124E92F62307105A1F050F461157105BD
:100D200009F49DCF6130710581F0EB2F512F97CFE2
:100D30006430710569F080F06630710509F48FCF79
:100D4000F4CFE42F4B2F592F8ACFE42F412F87CF99
:100D5000EB2F542F492F83CF4B2F5D2DE12F7FCFCA
:100D600080E00895F894E82FE295EF70F0E031A16B
:100D7000282F2F7081E090E001C0880F2A95EAF7B4
:100D8000982F9095932391A392A1892B82A3789475
:100D900008950F931F9380911603882329F00E94D2
:100DA00094041F910F9108950E9494040091690288
:100DB00010916A0220916B0230916C02600F711FDA
:100DC000821F931FEECF80911603882319F00E9493
:100DD000A00408950E94C906CB01089590917D0258
:100DE00092FF10C041E0282F2471243009F040E028
:100DF00031E0282F2871283009F030E0431711F036
:100E00002CE0822793FF10C041E0282F2471243169
:100E100009F040E031E0282F2871283109F030E056
:100E2000431711F02CE0822730917E0230FF10C072
:100E300051E0282F2171213009F050E041E0282FA6
:100E40002871283009F040E0541711F029E082277A
:100E500031FF10C041E0282F2171213109F040E01D
:100E600031E0282F2871283109F030E0431711F0C4
:100E700029E0822794FD877E089582389105B9F193
:100E8000B0F48133910509F47DC048F489329105AD
:100E900009F46DC08A32910509F47BC00895853349
:100EA000910509F45FC08933910509F10895833EE6
:100EB0009105D9F138F4803E910529F1823E9105E2
:100EC00079F10895863E9105D9F1873E910509F49F
:100ED0003EC0843E910541F520917E0221FF24C051
:100EE00080917D0284FD19C087EE90E008952091E5
:100EF0007D02237009F05AC020917E0223FF14C0A6
:100F000089E290E0089520917D0220FD38C0309163
:100F10007E0230FF09C024FF43C090E080E00895C6
:100F200020917D0222FDF7CF089520917D0222FDC0
:100F30003AC030917E0230FD39C024FFF5CFEDCFAD
:100F400020917D0223FFF0CF24FDE7CFCDCF20916C
:100F50007D0223FD2EC030917E0231FFEECF84EE64
:100F600090E0089520917D0225FFDECFC9CF20912A
:100F70007D0225FD21C020917E0223FFD5CF89E38C
:100F800090E0D2CF20917D0226FFCECF8AE290E082
:100F9000089520917D0226FFC7CF81E390E0089558
:100FA00083EE90E0089582EE90E0089580EE90E068
:100FB000089586EE90E0089585E390E00895972FD8
:100FC0007A30B8F46630A8F48430B0F470E026E0EB
:100FD000929F600D711D1124FB019CE3899FE00D20
:100FE000F11D1124EE0FFF1FE455FF4F85919491E1
:100FF000089580E090E0089581E0FCCF1F93CF93A7
:10100000DF930E943D07EC01C11580E5D807F0F59C
:10101000C11580E4D80708F09CC0C03ED10520F57A
:10102000CD3CD10508F082C0C83AD10578F4C53A64
:10103000D10508F073C0C130D10519F1209709F12D
:10104000C430D105F0F4D0E0C0E01BC0C33CD105F2
:10105000D0F7C85AD0E0CC0FDD1FCA58DE4F099038
:10106000D881C02DD4640DC0C11580E2D80708F026
:10107000D1C0C11581E0D80708F05AC0C83ED105DB
:1010800010F7CE01DF91CF911F910895C03682E510
:10109000D80718F5C03482E5D80708F06BC0C03215
:1010A00082E5D80708F05FC0C11582E5D80708F4CB
:1010B00097C02C2F2695269580E2289F9001112419
:1010C0008C2F8370C1E0D0E002C0CC0FDD1F8A9569
:1010D000E2F7C22BD32BDD68D4CFC03A82E5D80724
:1010E00060F4C03882E5D80708F459C0CF71D0E069
:1010F000DC2FCC27C46FD06AC4CFC03C82E5D807B0
:1011000008F462C0C03E82E5D80708F09CCFDC2F0F
:10111000CC27CC27DF71C06FD06AB3CFC55AD0E0DF
:10112000CD58DE4FC881D0E0D064ABCFD065A9CF19
:101130008D2F0E94EE06182FCE0199270E943D07A1
:10114000C12FD0E0DC2FCC27CC27DF71C82BD92BC7
:1011500098CFCE0199270E943D07CC27DF70C82B7E
:10116000D92BD06A8ECFCF71D0E0DC2FCC27C16FC6
:10117000D06A87CF2C2F26952695277080E2289F4E
:10118000900111248C2F8370C1E0D0E002C0CC0FFD
:10119000DD1F8A95E2F7C22BD32BDC6872CF2C2F90
:1011A00026952695277080E2289F900111248C2F88
:1011B0008370C1E0D0E002C0CC0FDD1F8A95E2F75A
:1011C000C22BD32BDA685DCF8C2F8F710E94EE0675
:1011D000C82FD0E0DC2FCC27CC27DF71D06251CFD5
:1011E0008C2F8F710E94EE0655E0D695C7955A95C3
:1011F000E1F7CF70D0E0DC2FCC27282F30E084FF40
:1012000005C044E0220F331F4A95E1F7C22BD32BD0
:10121000D06937CF8D2F8F710E94EE06182FCE0127
:1012200099270E943D07C12FD0E0DC2FCC27CC2787
:10123000DF71C82BD92BD2CF0E94C90608958095A3
:101240009091280298239093280208958091730327
:1012500090913A03981301C008958F5F8770FACF79
:10126000B0E0A0E0E6E3F9E00C9425297C010091D0
:101270007B0210917C028091290290912A02082B16
:10128000192BCFE0D0E0CC24C394D12CBC2EC601C6
:101290000C2E02C0880F991F0A94E2F78023912335
:1012A000892B49F4219790F7B12C8B2DCDB7DEB760
:1012B000E9E00C944129B7018C2F0E94DF070E94BE
:1012C000FE07019779F3F1CFCF93DF93EC010E94F2
:1012D0003009BE010E94DF070E94FE07DF91CF9117
:1012E00008959A3078F5863068F5E82FF0E086E0CA
:1012F000989FE00DF11D11249E2F977083E0F695C5
:10130000E7958A95E1F7EE0FFF1FEE0FFF1FEA50FA
:10131000FE4F50E040E080E0219130E0092E02C015
:10132000369527950A94E2F721703327042E01C0E1
:10133000220F0A94EAF7822B4F5F5F4F443051052A
:1013400059F7089580E008959A3098F5863088F529
:10135000E82FF0E086E0989FE00DF11D11248E2F1C
:10136000877041E001C0440F8A95EAF783E0F69563
:10137000E7958A95E1F7EE0FFF1FEE0FFF1FEA508A
:10138000FE4F30E020E070E05191DF011197CB017A
:10139000022E02C0969587950A94E2F78170819596
:1013A0008527842385278C932F5F3F4F2430310579
:1013B00059F7089590937C0280937B02089521E071
:1013C00030E002C0220F331F8A95E2F72095309556
:1013D00080917B0290917C02822393230E94DA0900
:1013E000089590911D028095892380931D02282FD6
:1013F000277069F4891759F090917E0292FF07C017
:101400008695869586950E94DF0910921D020895A3
:1014100021E030E002C0220F331F8A95E2F780916D
:101420007B0290917C02822B932B0E94DA09089513
:1014300090932A02809329020895FC01248122239B
:10144000C1F0808191810E94640992959F709630CD
:1014500091F058F4925F9F70923058F4803F19F0E9
:1014600030F4883E30F481E008959A5FF4CF843FF1
:10147000D1F380E00895883EB0F3813FD1F7F3CFF8
:10148000A6E0B0E0E6E4FAE00C942B2949835A8305
:1014900049815A819923A1F0222391F0CA010E9427
:1014A0003009182F682F89819A810E94A4096981C7
:1014B0007A81812F0E94DF072696E3E00C9447296A
:1014C000CA010E947109182FF2CF0F931F93CF9377
:1014D000DF938B01EA0190913003943061F58093A2
:1014E000E9008FEF9091E800815095FD06C095EDE1
:1014F0009A95F1F700008111F5CF8091E80085FF02
:101500001AC00E944403811111C08091E80085FD3A
:1015100006C08091E8008E778093E800F2CFF80152
:1015200081918F018093F100219779F78091E800F4
:101530008E778093E800DF91CF911F910F910895EE
:1015400043E050E0BC0182E00E94650A0895CF9319
:10155000DF93EC0148E050E0BC0181E00E94650AA5
:1015600088E0FE01A6E2B3E001900D928A95E1F7D2
:10157000DF91CF9108956091630180910D0380FF09
:1015800020C08091620143E0849FC00111248355F3
:101590009D4F569A2BB12F7B3BB130645FB7F894C7
:1015A000FC01649FE00DF11D1124BF01681779074C
:1015B000D1F45FBF8FE594E00197F1F700C0000020
:1015C0000895809164019091650123E0829FF0016C
:1015D0001124E355FD4F8917A0F611821082128263
:1015E0008F5F3396F8CFFC014191CF01E8E03BB922
:1015F000000000C047FF2BB9440F000000C000C02E
:1016000000C02BB900C0EA9591F7D0CF0F931F937C
:10161000CF93DF93EC0110E000E09091660190170A
:10162000110609F06CF40E94BB0A8C8190E00196CF
:10163000817099278C83DF91CF911F910F9108952D
:1016400020916401A801420F511D9A01220F331FFE
:10165000240F351F23553D4F4C8160910F0380911E
:101660000E0396959017110651F04CF0442349F063
:10167000409110030E941A060F5F1F4FCECF4423E4
:10168000B9F340E0F7CFB0E0A0E0E9E4FBE00C9470
:101690002229EC014C81042F10E09801D8010E940E
:1016A0001B2B9B01AC010E94E62A4B015C01E0E28E
:1016B000F0E0E01BF10BA5E5B0E0AC019B010E945E
:1016C000E62A6B017C019F01DF010E94AB299B018F
:1016D000AC010E94F12A9B01AC01280D391D4A1D65
:1016E0005B1DC701B6010E94F92AF22E822F90E0FD
:1016F00039E23F1520F143E0249F900111243595F4
:101700002795122F109500E085E5E82EEF188091BF
:101710006601081718F10E94BB0A9C8181E0992399
:1017200019F0903219F48FEF80936101809161017B
:10173000890F8C83CDB7DEB7ECE00C943E2925E50C
:1017400030E0B901681B790B9B01220F331F260F74
:10175000371F37FFD4CF2F5F3F4FD1CF8E2D01FDE5
:101760008F2D20916401622F600F7727771F9B01D7
:10177000220F331F260F371F23553D4F412F6091F6
:101780000F030E941A060F5FC2CFEF92FF920F93D2
:101790001F93CF93DF93EC018C81811109C081E00D
:1017A0008C831092AB0292E09093600180935F0172
:1017B000809164019091650123E0829FF0011124E2
:1017C000E355FD4F891758F110E003E06091660181
:1017D000161758F10E94BB0A80915F012091AB025D
:1017E000280F2093AB0290916001980F90936001B5
:1017F000191654F4022E000C330B4091660141502F
:10180000550B2417350734F0819580935F018130A3
:1018100009F41C82CDB7DEB7E6E00C9444291182AE
:10182000108212828F5F3396CDCFE12EF12C70E0C3
:10183000C7010E94912920916401820F482F50E036
:101840002091AB02022E000C330BE216F306BCF023
:1018500020916001022E000C330B2E153F057CF009
:10186000809F9001112423553D4F409110036091BA
:101870000F0380910E030E941A061F5FA7CFFA0183
:10188000EE0FFF1FE40FF51FE355FD4F118210828D
:101890001282F3CFB0E0A0E0E0E5FCE00C94222956
:1018A000EC018A81BB24BA9480FD02C0BB24B394AE
:1018B000A09066018C81811109C081E0B81220C01E
:1018C0008FEF8A0D8093AA0281E08C83F12CE12CAA
:1018D0004CE0942EEA14B8F00E94BB0A8091AA0250
:1018E00091E0B91257C0811150C0809166018150BA
:1018F0008093AA021C82CDB7DEB7ECE00C943E299F
:101900001092AA02E1CF009164010E0D1F2D111D4E
:10191000C801880F991F080F191F03551D4FF801A3
:1019200011821082128234E0C32ED12C812C80913E
:10193000AA02880D8D302CF1692D0E946F29892F04
:10194000082E000C990B8E159F0591F480911003C1
:101950008C9DA0018D9D500D112455954795559551
:101960004795980160910F0380910E030E941A061B
:101970008B0CF1E0CF1AD108D1F68FEFE81AF80AF4
:10198000A9CF87FFDDCF8A0DDBCF81508093AA02DC
:10199000BC82B1CF90E001966091660170E00E9438
:1019A00091298093AA028C83A6CFEF92FF921F9376
:1019B000CF93DF93EC0110E0EE24EA94F12C6091D8
:1019C0006601161770F00E94BB0A9A818C8190FF05
:1019D00027C08F5F8C83DF91CF911F91FF90EF9095
:1019E000089520916401422F410F5527551FCA01C8
:1019F0009A01220F331F280F391F23553D4F70E0E6
:101A0000C7010E949129962F8C814091100360910B
:101A10000F03199F800D11240E941A061F5FCFCF5C
:101A20008150D8CF90910D0390FF0EC0909164012A
:101A30002091650133E0939FF0011124E355FD4FA0
:101A4000921718F00E94BB0A089581836083428335
:101A50009F5F3396F5CFA3E0B0E0E1E3FDE00C94A7
:101A60002A298C018091AC0281110AC09E012F5F4E
:101A70003F4F4FEF6FEF0E941A068A818093AC02AE
:101A8000F8016481613069F08091AC0240E0662326
:101A900061F040E0623011F44091AC0280E060E01F
:101AA00004C06091AC0240E080E00E94120DF80199
:101AB000848190E0019663E070E00E949129848324
:101AC0002396E4E00C944629A3E0B0E0EAE6FDE0CA
:101AD0000C942C2990910D0390FF0AC09E012F5F5A
:101AE0003F4F0E941A064B8169818A810E94120D24
:101AF0002396E2E00C944829CF93DF93EC01EDE0CC
:101B0000F3E0438162818C810E94640D8C818F5F40
:101B10008C83DF91CF910895CF93DF93EC01EC811B
:101B2000F0E0EA55FC4F4491EDE0F3E06281818101
:101B30000E94640D8C818F5F8C83DF91CF9108951B
:101B4000B0E0A0E0E6EAFDE00C9424297C015B0112
:101B50006A018091680201E010E08A3010F40AE026
:101B600010E0C1E0D0E0B501C701F601099581118F
:101B700004C021960C171D072CF4CDB7DEB7EAE0A0
:101B80000C944029CC9F9001CD9F300D300D112435
:101B900090E080E045E34A95F1F700000196821756
:101BA0009307C1F7E0CF682F86E090E00E94932A68
:101BB00008950E94E405809115030E94D30D0895B5
:101BC0008091150380FD13C08160809315038130DF
:101BD00019F489E080931503809115030E94D30DB9
:101BE000809115038695869586950E9443050895F4
:101BF000B0E0A0E0EEEFFDE00C941E29FC01628055
:101C0000448081E08483E6EAF3E07490E5E2F4E066
:101C1000E491C0911003C695C158D0E0CC0FDD1FF0
:101C2000CD2FDD27812C75E0972EAA24AA94B12C04
:101C300055245A94E719EE2EF12C809166018816EE
:101C400038F00E94BB0ACDB7DEB7E0E10C943A2928
:101C5000C82CD12C82E0861568F09C9CF0019D9CDC
:101C6000F00D1124EF52FD4F80910E03808380917F
:101C70000F038183411023C09C9CF0019D9CF00DBB
:101C80001124EF52FD4F1382128220916401C6018C
:101C9000820F911D9C01220F331F280F391F2355DE
:101CA0003D4F9C9CF0019D9CF00D1124EF52FD4F87
:101CB0004281618180810E941A068394BECF9C9CE0
:101CC00080019D9C100D11240F521D4FF80183813E
:101CD0008823F1F081508383859DC00111246481A4
:101CE00070E00E947D29FB01FF27EA55FC4F84919B
:101CF000E82FE719E59DC0011124B7010E947D2955
:101D000080911003689FB0011124F8017283BDCF48
:101D10000E943C2AB5010E9491298C179D070CF066
:101D2000B4CFF2E0F61598F40E943C2AB5010E9467
:101D30009129F80180830E943C2A20910F03269567
:101D4000622F70E00E949129280FF80121839C9C4A
:101D5000F0019D9CF00D1124EF52FD4F12828091F5
:101D60001003893C58F088EC9C9CF0019D9CF00D80
:101D70001124EF52FD4F8483838387CF8431A0F7F2
:101D800084E1F2CF60910D036695669570E04BE0BB
:101D900050E084E591E00E944C2A892B19F481E0FF
:101DA0008093A8020E94E3069093A2028093A1026E
:101DB0008091A90284608093A9020895B0E0A0E018
:101DC000E4EEFEE00C94222949015A016B017C01EA
:101DD0000E940B068401A4016A2D7B2D88E090E00F
:101DE0000E94A52A94014A2D5B2DB601C70100E28D
:101DF0000E94D529622F84E290E00E94932ACDB7F9
:101E0000DEB7ECE00C943E29A3E0B0E0EAE0FFE0AE
:101E10000C942529082FE62EF42EC22E90910D0346
:101E200090FF41C020910E03281308C080910F033A
:101E3000861304C080911003841729F08091A902B1
:101E400082608093A902E92FE695E695AE2FB0E077
:101E5000A254BE4F8C918093A7029C7F943039F599
:101E60009E012F5F3F4F4F2D6E2D802F0E941A062F
:101E70004B8169818A810E94120D00930E03E092CA
:101E80000F03F0921003CC2071F020910D036091AC
:101E9000110370911203302FA701809113039091C9
:101EA00014030E94DE0E2396E9E00C94412982304F
:101EB00019F4F0901003E1CF8630A1F1893091F14F
:101EC0008931D9F6E9516E2F6170B62EE695F0E0B2
:101ED000EF55FC4F1491D12C60916601D61618F085
:101EE0000E94BB0ACACFD19EC001112470E00E949B
:101EF0007D29802FB11014C0860F20916401622FBC
:101F00006D0D7727771F9B01220F331F260F371F79
:101F100023553D4F4F2D6E2D0E941A06D394DCCFD2
:101F2000861BEBCF022FA9CFEDE0F3E0438121E147
:101F3000421B08F440E021E0628181810E94040F8D
:101F40000895EDE0F3E0438121E1420F08F44FEF03
:101F500021E0628181810E94040F0895EDE0F3E0A9
:101F6000628121E1621B08F460E021E0438181810C
:101F70000E94040F0895EDE0F3E0628121E1620F19
:101F800008F46FEF21E0438181810E94040F0895DE
:101F9000EDE0F3E0818121E04381628188500E947D
:101FA000040F0895EDE0F3E0818121E04381628137
:101FB000885F0E94040F089580911103882319F00F
:101FC00081508093110320910D0330910E034091B5
:101FD0000F035091100360911103709112038091CF
:101FE0001303909114030E94DE0E08958091110353
:101FF000833018F48F5F8093110320910D0330918B
:102000000E0340910F0350911003609111037091E2
:10201000120380911303909114030E94DE0E089521
:1020200090910D0390FF3AC09370811138C0946075
:1020300090930D038091A90281608093A902662389
:1020400091F020910D0330910E0340910F035091B8
:10205000100360911103709112038091130390910A
:1020600014030E94DE0E60910D036695669570E084
:102070004BE050E084E591E00E944C2A892BB9F0B6
:102080000E94040681E08093A40220E040911003A6
:1020900060910F0380910E030E94040F08958B320C
:1020A00010F0986AC5CF880F880F982BC1CF0E9477
:1020B000C20EE8CF61E00E941010089580910D03D8
:1020C00086958695815009F48AE261E00E9410109D
:1020D000089580910D03869586958F5F8B3208F069
:1020E00081E061E00E941010089590910D0390FF2F
:1020F00009C096959695981728F0961718F40E949F
:10210000691008950E945A100895EDE0F3E085E00B
:10211000808311828FEF828383831482A7EAB2E0E7
:1021200012968C911297836012968C93758125E09C
:1021300030E04FEF5FEF60E0868197810E94DE0E16
:102140000895A4E0B0E0E7EAF0E10C942B29409177
:102150005C0250915D0260915E0270915F022FB748
:10216000F89480911F0390912003A0912103B091D6
:1021700022032FBF841B950BA60BB70B11E08436EF
:102180009105A105B10570F10E94C9066E5F7F4FF0
:102190008F4F9F4F69837A838B839C838091250126
:1021A000909126018C5B9D4F4091240150E0453079
:1021B000510510F044E050E0BE016F5F7F4F0E9478
:1021C000662A84E090E00E94A628182F882351F008
:1021D0000E94940460935C0270935D0280935E029F
:1021E00090935F02812F2496E3E00C9447294F924D
:1021F0005F926F927F928F929F92AF92BF92EF9277
:10220000FF920F931F93CF93DF937B01FB014080DD
:102210005180628073809FB7F89480901F039090E4
:102220002003A0902103B09022039FBF841895083B
:10223000A608B708F4E68F169104A104B10418F4B7
:10224000C1E0442329F1C82F880FDD0BFE0183E094
:10225000EE0FFF1F8A95E1F7EC5FFE4F81819281BF
:102260008C5B9D4F408150E00417150708F4A801CE
:10227000B9010E94662ACE010E94A628C82F882391
:1022800039F00E949404F701608371838283938301
:102290008C2FDF91CF911F910F91FF90EF90BF9006
:1022A000AF909F908F907F906F905F904F90089528
:1022B000ABE0B0E0EEE5F1E10C942A2988E0EDE036
:1022C000F3E0DE01119601900D928A95E1F780917D
:1022D000A7029091A802A091A90289879A87AB874B
:1022E00041E08B85811101C040E00BE010E09E01D0
:1022F0002F5F3F4F64E672E086E00E94F710811185
:102300001092A9022B96E4E00C944629A1E0B0E0DB
:10231000ECE8F1E10C942A298091150380FF18C0A4
:10232000869586958695898341E090915002981311
:1023300001C040E001E010E09E012F5F3F4F60E6EA
:1023400072E085E00E94F7102196E4E00C944629A3
:1023500080E0E9CF4F925F927F928F929F92AF92EF
:10236000BF92CF92DF92EF92FF920F931F93CF9382
:10237000DF930F92CDB7DEB7C62E4A015901482E22
:10238000880F5508C2010E94A628782E882309F4D8
:1023900080C0C20133E0880F991F3A95E1F7FC0134
:1023A000EC5FFE4F438150E04115510511F041E0D3
:1023B00050E08C5F9E4FFC01648175816C5B7D4FAA
:1023C000CE0101960E94662AF4014081518162810A
:1023D00073812FB7F89480911F0390912003A091EF
:1023E0002103B09122032FBF841B950BA60BB70BC3
:1023F00084369105A105B10540F4B701C8010E94DA
:102400002D059981891709F444C00C2C000CDD08B6
:10241000C6010E94A628782E811113C0712C872D29
:102420000F90DF91CF911F910F91FF90EF90DF9070
:10243000CF90BF90AF909F908F907F905F904F9084
:102440000895C60123E0880F991F2A95E1F7FC0142
:10245000EC5FFE4F438150E0E416F50608F4A70157
:102460008C5F9E4FFC01648175816C5B7D4FC50163
:102470000E94662AB701C8010E942D05998189131F
:10248000CDCF0E949404F40160837183828393838F
:10249000C6CFA701B801C5010E94662AC0CFA5E03A
:1024A000B0E0E5E5F2E10C9426296B0185E0E82E29
:1024B000F12C05E412E09E012F5F3F4F4CE352E008
:1024C00061E080E00E94AA11882349F095E0FE01B6
:1024D0003196A7E3B2E001900D929A95E1F795E06D
:1024E000E7E3F2E0D60101900D929A95E1F7259687
:1024F000E8E00C944229A5E1B0E0E1E8F2E10C94B7
:1025000021298E01045F1F4F8AE0F80111928A95FC
:10251000E9F782E4C82E81E0D82EF12CE12CAA2420
:10252000A394B12C22E4822E21E0922EF601819117
:102530006F018F3F09F442C0F894E82FE295EF70E5
:10254000F0E021A18F70A50102C0440F551F8A95AC
:10255000E2F7CA01922F982B91A392A1809589232B
:1025600082A3789400C0ECE3F1E0712C31E021917A
:102570002F3F09F4A8C0A22FA295AF70B0E09096AB
:102580008C9190E02F7002C0959587952A95E2F77F
:1025900080FD99C0832F782A330F8E169F0639F756
:1025A000F601319780818F3F11F00E94B20650EA08
:1025B0005A95F1F7F801EE0DFF1D70828FEFE81AC2
:1025C000F80AE5E0EE16F10409F0B0CF4AE050E079
:1025D000B8018FE692E00E94592A009741F02AE064
:1025E000F801AFE6B2E001900D922A95E1F7E09094
:1025F0007A02F12C970120583D4F7901892B09F47B
:1026000064C081E080932F020E94A00490932E0268
:1026100080932D02D12CC09016038E010F5F1F4FA7
:1026200085E0CC2009F4A7C0F80111928A95E9F75A
:10263000809168028A3008F06CC04FE452E1B80122
:10264000C7010E94A00D882309F484C04DEE58E113
:10265000B801C7010E94A00D882309F47BC041EA9C
:1026600050E1B801C7010E94A00D882309F472C08F
:1026700046E851E1B801C7010E94A00D882309F482
:1026800069C048E551E1B801C7010E94A00D882347
:1026900009F460C0109268028091790290E045E0F0
:1026A00050E0B80180589D4F0E94592A21E02093A4
:1026B0003602892B09F042C0C12C8C2D8D296596DC
:1026C000EDE00C943D2980E066CFD0902F02DD2014
:1026D00009F4A0CF80912D0290912E020E948504D2
:1026E000059708F497CF45E050E06FE672E0C70128
:1026F0000E94592A892B59F085E0EFE6F2E0D701D4
:1027000001900D928A95E1F710922F0284CFD12C7F
:10271000FBCF80913002909131020E948504843F6A
:10272000914008F08ACF80913602882329F285E013
:10273000F80111928A95E9F710923602A091790278
:10274000B0E0A058BD4F85E0F80101900D928A9548
:10275000E1F7B3CF809168028F3F31F08F5F8093B4
:1027600068028A3008F498CF0E94A0049093310246
:1027700080933002D8CFF701A5E4B2E001900D922A
:102780008A95E1F765E070E085E492E00E942D050E
:102790008093440240919D0250E060919C0270E061
:1027A00068567D4FC8010E94662A898180934B023A
:1027B00061E070E0C8010E942D0580934A0280907C
:1027C0004C0290904D02A0904E02B0904F0280912A
:1027D000320290913302A0913402B09135028816F2
:1027E0009906AA06BB06B1F080923202909233029B
:1027F000A0923402B09235020E949404861A970A7D
:10280000A80AB90A8092690290926A02A0926B02A9
:10281000B0926C02809150020E94E4058BE0E1E5E9
:10282000F2E0D80101900D928A95E1F72981822F7B
:1028300086958695FA80EB80BC800A851B85109270
:102840005B02112309F439CF10FF0AC090910D03E8
:1028500020FF1AC0916090930D0360E00E94101059
:1028600011FF06C020E04B2D6E2D8F2D0E94040F0E
:1028700012FF04C00023A9F00E94C20E13FF1DCF57
:1028800081E08093A40219CF9E7F90930D030E9454
:1028900004068091A90281608093A9020E94BB0A6C
:1028A000DFCF0E940406EACF2091280280911F0208
:1028B000282B80911E02882381F0282B30E08EEE99
:1028C00091E0FC014191CF0141113F5FF1E0843F74
:1028D0009F07B9F7311110921E022093EC0148E0D6
:1028E00050E060E272E08CEE91E00E94592A892B60
:1028F000A9F088E0ECEEF1E0A0E2B2E001900D92E8
:102900008A95E1F7E0911A03F0911B03309731F0BB
:102910000280F381E02D8CEE91E0099508951092EC
:102920002802EEEEF1E086E0DF011D928A95E9F7DC
:1029300090E080E00E94F70490E080E00E94D204E2
:1029400010921F020E9454140895AAE2B0E0EBEA2C
:10295000F4E10C942B2982E393E02091F100FC0137
:102960002193CF01F3E08A339F07B9F780913303B6
:10297000833009F470C0B8F4813009F447C0823064
:1029800009F4B1C08091E80083FF7EC280913203D8
:10299000909133039A3008F077C2E92FF0E0E45DBC
:1029A000F44D0C94A5298A3009F48CC08B3009F4BD
:1029B0006FC0893039F780913203813219F78091E5
:1029C0003603909137030297E8F68091E800877FFD
:1029D0008093E8008091E80082FF38C09091F30076
:1029E0008091F200029731F48091F100813011F072
:1029F000863021F48091F100809325038091E800D6
:102A00008B778093E8000E947503BCCF80913203DE
:102A1000813A09F0B7CF8091E800877F8093E80082
:102A20008091360390913703892B61F468E086E248
:102A300093E070E00E9421048091E8008B778093FE
:102A4000E800A0CF60E090E080E0F3CF8091300319
:102A50008111C0CF97CF80913203813A09F092CF94
:102A60008091360390913703892B09F08BCF8091A9
:102A7000E800877F8093E8008091E80080FFFCCF2A
:102A8000809167018093F1008091E8008E77B9CF43
:102A900080913203813209F075CF80913603909195
:102AA0003703892B09F06ECF8091E800877F8093F0
:102AB000E8000E94750380913403809367010E94AF
:102AC0008F1460CF80913203813209F05BCF809107
:102AD000E800877F8093E8000E94750380913503AA
:102AE000809324034FCF80913203813A09F04ACF7B
:102AF0008091E800877F8093E8008091E80080FF64
:102B0000FCCF80912403BECF803899F0823809F041
:102B1000BBC1809136038F70873008F0B5C18093B8
:102B2000E9008091EB0085FB882780F91092E9008D
:102B300006C080912E0390912F0391118260909195
:102B4000E800977F9093E8008093F1001092F100E5
:102B50008091E8008E7794C1882309F482C1823085
:102B600009F092C180913403811185C180913603AF
:102B70008F702FEF280F263008F086C18093E90070
:102B80002091EB0020FF77C1933031F48091EB006E
:102B900080628093EB006FC19091EB009061909305
:102BA000EB0021E030E001C0220F8A95EAF7209384
:102BB000EA001092EA008091EB008860EACF811170
:102BC00063C1109134031F778091E3008078812BDB
:102BD0008093E3008091E800877F8093E8000E9463
:102BE00075038091E80080FFFCCF8091E30080684E
:102BF0008093E30082E0111183E08093300344C1AD
:102C00008058823008F040C18091340390913503A0
:102C10008C3D23E09207A1F583E08A838AE28983D1
:102C20004FB7F894DE01139620E03EE051E2E32F27
:102C3000F0E050935700E49120FF03C0E295EF705D
:102C40003F5FEF708E2F90E0EA30C0F0C7968D9313
:102C50009D932F5F243159F74FBF8091E800877F04
:102C60008093E8006AE270E0CE0101960E942104A0
:102C70008091E8008B778093E80006C1C096E7CF8B
:102C80004091360350913703292F332723303105E4
:102C900009F444C078F52130310509F46FC08BE3A5
:102CA00090E0ECE1F5E02230310509F0EDC0209133
:102CB000E800277F2093E800209138033091390302
:102CC0008217930708F49C0140E02115310509F0B3
:102CD00064C0411162C08091E80082FDC9CF80913B
:102CE0003003882329F2853019F28091E80083FFB0
:102CF000F2CFBECF21323105A9F12232310509F0E0
:102D0000C3C04115510509F443C04130510509F0D4
:102D1000BBC082E390E0E6EAF4E0C9CF99278130B6
:102D20009105C1F0009759F0029709F0ADC0E9E6AE
:102D3000F5E0E4918E2F90E0E9E6F5E007C0E3E9E5
:102D4000F5E0E4918E2F90E0E3E9F5E0009709F4D7
:102D50009BC0ADCFE3E8F5E0E4918E2F90E0E3E88F
:102D6000F5E0F4CF4115510571F04130510509F0FE
:102D70008BC089E090E0E7E4F5E099CF82E190E054
:102D8000E7E5F5E094CF89E090E0EEE2F5E08FCF63
:102D900084E490E0E8EDF4E08ACF8091300388236A
:102DA00009F466CF853009F463CF8091E80083FD94
:102DB0005FCF8091E80082FD8ECF8091E80080FF98
:102DC00084CF9091F3008091F2002115310519F024
:102DD0008830910550F041E0089709F040E080917B
:102DE000E8008E778093E80070CF44914093F10023
:102DF0003196215031090196E8CF803809F044C05E
:102E00008091E800877F8093E80080913103809370
:102E1000F1009ECE811138C0109134031230A0F51C
:102E20008091E800877F8093E800109331030E942F
:102E30007503112311F084E005C08091E30087FD44
:102E4000FACF81E08093300342E061EC81E00E94A0
:102E5000940342E261EC82E00E949403809130038B
:102E600013C080913403813079F481E0933009F00C
:102E700080E080932F031092E9008091E800877F23
:102E80008093E8000E9475038091E80083FF0AC0E8
:102E90008091E800877F8093E8008091EB0080625A
:102EA0008093EB00AA96E3E00C9447290E948F14CC
:102EB0002FEF84E39CE0215080409040E1F700C078
:102EC000000088E19CE00FB6F894A895809360001C
:102ED0000FBE90936000FFCF882321F00E941F094E
:102EE0000E9454140895882339F090912802982B59
:102EF000909328020E9454140895882309F44DC029
:102F0000823879F40E941C0581FF47C089E30E9442
:102F1000B9040E94541489E30E94AC040E94541422
:102F20000895833859F40E941C0580FF36C083E55C
:102F30000E94B9040E94541483E5EECF843859F4FA
:102F40000E941C0582FF29C087E40E94B9040E94E8
:102F5000541487E4E1CF9CEF980F913AE8F290E2A5
:102F6000980F983050F4877091E001C0990F8A95BE
:102F7000EAF7892F0E941F09D1CF9BE5980F933064
:102F800028F490E080E00E94F7040895885A8B317D
:102F900020F490E080E00E94D2040895CF93C82FDF
:102FA0008823C9F08238C9F40E941C0581FD13C032
:102FB00089E30E94B9040E9454142FEF87EE93E036
:102FC000215080409040E1F700C0000089E30E945A
:102FD000AC040E945414CF9108958338A1F40E9448
:102FE0001C0580FDF8CF83E50E94B9040E945414AB
:102FF0002FEF81EE94E0215080409040E1F700C037
:10300000000083E5E4CF8438A1F40E941C0582FD12
:10301000E2CF87E40E94B9040E9454142FEF81EE9E
:1030200094E0215080409040E1F700C0000087E428
:10303000CECF8CEF8C0F813A70F4EEEEF1E084EF9E
:1030400091E02191C21799F18E179F07D1F78C2F2C
:103050000E94B904BECF80E28C0F883068F4C7703C
:1030600021E030E001C0220FCA95EAF780912802E2
:10307000822B80932802ADCFEBE5EC0FE33040F4D8
:10308000F0E0ED58FE4F808190E00E94F704A3CF5E
:10309000C85ACB3108F09FCFEC2FF0E0EE0FFF1FA6
:1030A000EA58FE4F808191810E94D20494CF8C2FE8
:1030B0000E94AC040E945414CACF1F93CF93DF9395
:1030C000182FEB010E94CE17209739F4812F0E9410
:1030D0007D17DF91CF911F9108958FE99FE00197B0
:1030E000F1F700C000002197EFCF0F931F93CF930C
:1030F000DF93C62FD42F022FFC0185818823A9F0EE
:10310000609376030E94A0049093750380937403E8
:10311000C77081E001C0880FCA95EAF70E94731753
:10312000DF91CF911F910F910895809176036813DD
:1031300034C080917403909175030E948504883C8B
:10314000910558F510E21D0FCD17B9F080E28C0FF4
:10315000883040F4C77081E001C0880FCA95EAF753
:103160000E946C17183048F481E09D2F977001C0C1
:10317000880F9A95EAF70E94731770E060E0802F3D
:103180000E945D18183060F6D77081E001C0880F8A
:10319000DA95EAF70E946C17C3CFC77081E001C0CF
:1031A000880FCA95EAF7F6CF81110CC070E066234C
:1031B00031F060E089EA0E945D1880E0089560E0E7
:1031C0008AEAF9CF8130C9F770E0662319F060E030
:1031D0008EE4F1CF60E08BE4EECFA1E0B0E0E3EF6E
:1031E000F8E10C942529EE24E394F12C0BE412E091
:1031F0009E012F5F3F4F40E452E063E082E00E9477
:10320000AA11C82E882339F100E080E01DC0D090BB
:103210006E02D00E2D2D30E0A90148565D4F7A0187
:10322000E1E0F0E0EC0FFD1FE00FF11D1081FA016D
:103230009081191BB12E1B149CF0912F17FD90E06B
:10324000191B111118C00F5F90916D020917F8F248
:1032500081110E941C098C2D2196E9E00C944129D2
:10326000BA94F70180818F5F808360E08D2D0E948A
:10327000D4188C2DE0CF1F5FF701808181508083AF
:1032800061E08D2D0E94D4188C2DDBCFA8E0B0E03A
:10329000ECE4F9E10C942C2966EE7EEF90E080E0FE
:1032A0000E94B12A60E082E090E00E94932A81E0CF
:1032B00090E090932A028093290261E083E090E0FD
:1032C0000E94932A60E074E184E090E00E94B12AB9
:1032D00060E086E090E00E94932A6FEF87E090E044
:1032E0000E94932A40E050E0BA0188E090E00E94FA
:1032F000A52A60E084E290E00E94932A60E087E1E2
:1033000090E00E94932A60E08CE090E00E94932A73
:1033100060E08DE090E00E94932A19821A821B825D
:103320001C821D821E821F82188648E050E068E1E0
:1033300070E0CE0101960E94832A40E050E0BA017D
:1033400080E290E00E94A52A0E94E00D83E00E94A6
:10335000D90DEDE0F3E080818160808386958695CC
:103360000E945A1021E04FEF6FEF80E00E94040F9F
:103370008BE00E945A1040E050E0BA018FE090E0EC
:103380000E94A52A40E050E0BA0183E190E00E944B
:10339000A52A2896E2E00C94482990E080E00E945B
:1033A0007D2A863E9E4F51F00E944619809115035A
:1033B00084708962809315030E94D30D86E090E0AB
:1033C0000E946F2A80931503803320F087708862F3
:1033D0008093150390911503892F817090FF04C08D
:1033E000892F8695869586950E944305089590912C
:1033F0007E0292FB222720F9281779F080FB92F9B0
:1034000090937E0260917D0270917E0284E090E054
:103410000E94B12A82E00E94F1090895B0E0A0E084
:10342000E4E1FAE10C9424298C01FC0184818823D5
:1034300009F459C021E040815181628173819581F5
:103440000E94400AEC01F8018581882309F4EFC449
:10345000C230F8E7DF0709F47DC0A0F4C11538E7F2
:10346000D30779F1C13088E7D80709F441C0FE01DC
:10347000E851FC47E730F10508F09BC0EA5CF44DE9
:103480000C94A529C43098E7D90709F44FC090F1EE
:10349000C530F8E7DF0759F790911503892F869516
:1034A000869586958F5F8F719770863008F060C023
:1034B000880F880F880F892B80931503809115033F
:1034C00021C085E00E94D90D80911D02877059F0BE
:1034D000F8018581882339F080917E0282FF03C044
:1034E00082E00E94F109CDB7DEB7EAE00C944029F2
:1034F00080E0E8CF80911503982F987F79F088506D
:1035000080931503887F91E009F490E08091150382
:1035100090FB80F9809315030E94D30D80911503D1
:103520008695869586950E944305CECF809115039A
:10353000982F969596959695953040F49F5F990FA4
:10354000990F990F8770892B80931503809115032C
:103550008160E0CF8091150380FF07C08E7F80934C
:1035600015030E94D30D80E0DECF0E94E00DACCFAA
:1035700090931503A3CF26E241EE61EEC8010E94AD
:103580007518A2CF27E245EE65EEF8CF26E241EEB0
:1035900060EEF4CF27E245EE64EEF0CF26E241EE96
:1035A00062EEECCF27E245EE66EEE8CF28E241E09E
:1035B000EBCF10927603CE019057839708F0F5C3B6
:1035C00084E090E00E947D2A90937E0280937D02A9
:1035D000FE01E150F047E232F10520F4E35CF44DE6
:1035E0000C94A52980917D02816080937D0295C015
:1035F00080917E02886080937E028FC080917D02E0
:103600008260F3CF80917D028460EFCF80917D0254
:103610008860EBCF80917E028160EDCF80917E0249
:103620008260E9CF80917D028061DFCF80917D0251
:103630008062DBCF80917D028064D7CF0E948F149F
:1036400080917D028068D1CF80917D028C60CDCF4A
:1036500080917E028360CFCF80917D028E7FC5CF27
:1036600080917E02877FC7CF80917D028D7FBDCF05
:1036700080917D028B7FB9CF80917D02877FB5CF0E
:1036800080917E028E7FB7CF80917E028D7FB3CFF7
:1036900080917D028F7EA9CF80917D028F7DA5CF05
:1036A00080917D028F7BA1CF0E948F1480917D023B
:1036B0008F779BCF80917D02837F97CF80917E0211
:1036C0008C7F99CF80917D0282FB992790F921E030
:1036D000922790FB82F990FB83F987CF80917E023D
:1036E000982F909591708E7F892B90FB81F983CFD5
:1036F00090917D02892F8F7B96FF806476CF0E9408
:103700008F1490917D02892F97FB87F980586DCF98
:1037100061E08EE090E00E94932A60917D027091BA
:103720007E0284E090E00E94B12A0E948F14CCCEE9
:1037300060E0EFCF90917D02892F8F7E94FF8061B2
:1037400054CF90917D02892F8E7F90FF81604DCF65
:1037500090917E02892F877F93FF88604CCF85E30D
:1037600033C385E374C320910D0320FF1DC02E7F5A
:1037700020930D0330910E0340910F0350911003DD
:1037800060911103709112038091130390911403BF
:103790000E94DE0E0E9404068091A902816080933F
:1037A000A9020E94BB0A90CE822F816080930D03F4
:1037B000869586950E945A1087CE4EE550E169E6BF
:1037C00070E10E94FE0580CE49E650E16EE570E1B1
:1037D000F8CF48EC5FE062ED7FE0F3CF42ED5FE0D1
:1037E00068EC7FE0EECF4EEA5FE06BEB7FE0E9CF85
:1037F0004BEB5FE06EEA7FE0E4CF44E95FE061EA33
:103800007FE0DFCF41EA5FE064E97FE0DACF4CEDB3
:103810005FE066EF7FE0D5CF46EF5FE06CED7FE0E5
:10382000D0CF81E0C7CF65E082E00E9475104CCE1A
:1038300068E086E0FACF6EE089E0F7CF64E18FE0E0
:10384000F4CF67E185E1F1CF88E1B4CF62E289E1AD
:10385000ECCF83E2AFCF6AE285E2E7CF0E948F141C
:103860002FEF34E38CE0215030408040E1F700C07E
:10387000000081E08093E00080E28093D800109205
:10388000C900EFE1FEE43197F1F700C0000087E0E6
:1038900090EBDC018093770390937803A0937903F6
:1038A000B0937A0388E19CE00FB6F894A8958093D2
:1038B00060000FBE90936000FFCF6FEF7FEF90E04E
:1038C00080E00E94B12A0E94561780917E0282FBFE
:1038D000882780F991E089270E94F719F8018581EE
:1038E000C081D181882309F44CC0CE010E943009E7
:1038F000F82E682FCE010E94A409BE018F2D0E94D0
:10390000DF070E94FE07D82EC92FA82EF801C58018
:10391000B680B2943FE0B32280911D02877001F11E
:10392000DC2DCC20F1F0892F807F803469F080E29B
:103930008D0D8830A8F0892F807E803229F4F1E047
:10394000FD1570F4BB2061F080917E0282FF08C0FB
:1039500082E00E94F10980911D028770D1E009F098
:10396000D0E0FC2EF2942FE0F2222BE02F1508F489
:103970006EC0EF2DF0E0E15AF44D0C94A52980E0E3
:10398000ABCFCE010E947109F82EB7CF3C2F3F700C
:10399000E32EC07F19F0E29490EFE922CC20B9F039
:1039A000EE2069F080E28D0D883010F0A11009C082
:1039B00080912802E82AE09228020E9454148D2D5A
:1039C00044C080911F02E82AE0921F02F6CF8D2D9D
:1039D0000E947D17EE20D9F180E28D0D883010F025
:1039E000A11004C08E2D0E941F0906C0E094809192
:1039F0001F02E822E0921F020E94541428C08C2F5C
:103A00008F70E82EC07FC03219F0E29480EFE82278
:103A1000AA2059F091E0A91609F479C0CC2009F444
:103A200085C0BB2009F447C0CACF80917E0282FDC9
:103A30003EC0CC20B1F1EE2039F080912802E82A76
:103A4000E09228020E94541480E00E94CE172F2D8D
:103A50002850330B2430310510F40E941C05DD235F
:103A6000A9F080911D0280FD11C0F8011582869594
:103A7000869586950E94080AC8010E940E1A8091B8
:103A80001D028695869586950E94DF0920E0F80143
:103A90004081518162817381848195810E94400AB5
:103AA00022CD80E00E947D17EE2089F29BCFCC20B2
:103AB000A1F0B11004C08E2D0E947317C8CFE1E0B1
:103AC000BE12C5CF80911E029E2D9823E91609F4DF
:103AD000BECFE82AE0921E02BACFB110B8CF8E2D29
:103AE0000E946C1790911E028E2D892329F08E2D35
:103AF0008095892380931E028091F5019E2D982345
:103B000009F4A5CFE094E822E092F501A0CFCC2003
:103B100029F0F5E0FB1508F49ACFCDCF24E02B1562
:103B200008F495CF8E2D0E946C1791CFBB20D1F356
:103B300039E3A31209C08FEF97EEE3E08150904084
:103B4000E040E1F700C000008D2D0E947D177FCF7F
:103B50008C2F86958695837069F0813009F077CF38
:103B60008D2D9C2F9370C11002C080E090E00E94C8
:103B7000D2046DCF8D2D9C2F9370C11002C080E0B8
:103B800090E00E94F70463CF8C2F837009F03FC050
:103B9000C1105DCF4D2D429546954770440F440F9F
:103BA0002D2D2F7030E0042E02C0220F331F0A94F7
:103BB000E2F790E080E0D4FE09C08FE090E002C020
:103BC000880F991F4A95E2F780959095C695C695FE
:103BD000C370C23099F078F44091290250912A02C2
:103BE000C13039F0822B932B842395230E94180A2D
:103BF0002ECF242B352B822B932BF8CF822B932B7C
:103C00002091290230912A0282279327EFCF8695AF
:103C1000CC2011F08C2F8170882309F418CF4D2D02
:103C2000429546954770440F440F2D2D2F7030E07C
:103C3000042E02C0220F331F0A94E2F790E080E0C6
:103C4000D4FE09C08FE090E002C0880F991F4A950A
:103C5000E2F780959095C695C695C370C23099F0ED
:103C600078F440917B0250917C02C13039F0822B74
:103C7000932B842395230E94DA09E9CE242B352B3C
:103C8000822B932BF8CF822B932B20917B023091A8
:103C90007C0282279327EFCFCF70CC2029F08C2F86
:103CA0000E94080A8D2D08CF8D2D0E946C178C2F35
:103CB0000E94DF09CCCE8D2DF2EFAF1699F1FA15E7
:103CC00070F020EFA216D1F031EFA31691F0CC20C6
:103CD00009F45BC0B11073CE8C2F8F7127C093EFA6
:103CE000A91639F1E4EFAE12F2CF80917E0282FD87
:103CF0002EC08C2F8F71CC20D9F218C0CC2069F047
:103D0000F4E0FB1508F4A3CECF7181E090E002C08F
:103D1000880F991FCA95E2F7B8CF25E02B1508F454
:103D200096CEF2CF8C2F8F71C110C2CF0E94080A9D
:103D30008ECE90E080E0CC2009F49DCFCF7181E061
:103D400090E002C0880F991FCA95E2F794CFCC206B
:103D500089F0CF718C2F0E94080A80917E0282FF29
:103D600007C038E0C39FC0011124836080931D0207
:103D70008C2FDCCF81E00E94F10981E08B1508F0E7
:103D800066CE82E00E94F10962CEBB2059F08933F1
:103D900009F0DACE9FEFE7EEF3E09150E040F0401B
:103DA000E1F7D0CE8C2F8F7183CFC631FCE7DF07D0
:103DB00081F4809128028A7A91E009F490E090934E
:103DC000F4018111CCCC89E20E94B9040E94541400
:103DD0007BCBC3303CE7D30709F46FCD50F4C1155A
:103DE0009CE7D90709F43ACDC130DC4709F46BCD23
:103DF00075CDCB35FCE7DF0709F4C1CDCC352CE719
:103E0000D20709F462CDCA35DC4709F067CD81E0FD
:103E100063CD809128028272FE01E052F847E531BD
:103E2000F10508F05BCDE559F44D0C94A529FE0190
:103E3000E851FC47E730F10508F420CBC6312CE708
:103E4000D20739F78091F40181118BCC89E20E946D
:103E5000AC04BCCFCF93DF9380911C02807F09F02C
:103E60004DC080911B02882309F448C0E091730380
:103E700050913A03C0911702D09116026091180236
:103E80007091190247E05E17C9F18E2F90E0E49F10
:103E9000F0011124E55CFC4F2481222391F1489F1D
:103EA000F001499FF00D1124DF01A55CBC4F119674
:103EB0002C9111972C1325C02C912D1322C01596EF
:103EC0002C91159721111DC012962D913C91261B06
:103ED000370B283C3105A8F480911C028F7080615B
:103EE00080931C02EF5BFC4F80818F708061808328
:103EF00086E192E00E940E1A0E942609DF91CF917E
:103F00000895FC013196E770BECFA4E1B0E0EBE884
:103F1000FFE10C9422298C0186E0F801DE011F9656
:103F200001900D928A95E1F7F8018481E58096E190
:103F3000A92E92E0B92E90911A02911128C08823DF
:103F400019F1EE20F1F0C8010E941D0AF82E882315
:103F5000C1F087E0F801D50101900D928A95E1F753
:103F600080911A02813031F48091160290911702EB
:103F70000E9464090E942A1F8F2D6496ECE00C9425
:103F80003E29C8010E940E1AFF24F394F5CFD08079
:103F9000C18082809380F0901B02209118023091A2
:103FA0001902A401421B530BFF2009F4D9C0483C5D
:103FB000510508F092C08823F9F290911702809180
:103FC0001C02282F207F09F056C0C91214C09091FE
:103FD0001602D91210C0E11048C08F708061809322
:103FE0001C0286E192E00E940E1A80911C02F801E8
:103FF0008683F12CC1CFE11038C06C2D8D2D0E942D
:1040000006036C2D8D2D0E940603E82E8111F1CF41
:10401000DF86C88A8F8598890E946409292F229596
:104020002F70243058F49F70223088F0992399F033
:10403000F8019681907F79F4FE2C9ECF2A5F2F7035
:10404000223068F0C8010E940E1AEF2CF5CF992398
:1040500011F0882389F3805E883070F3F3CF803FBE
:1040600058F3815F833070F7E7CF80911C02816045
:1040700080931C02BECFC91207C090911602D912BC
:1040800003C0EE2009F48DC0C8010E941D0A8823D8
:1040900009F477CFEE2009F474CF80911C028032AE
:1040A00088F02091160230911702398728879B8665
:1040B0008A8690911A029C871D868E87CE0108966B
:1040C0000E940E1A87E0F801A6E1B2E001900D927D
:1040D0008A95E1F70E942A1F57CF90911C02292F41
:1040E000207F51F486E192E00E940E1A87E0F501EC
:1040F00011928A95E9F77DCF882309F43DCF80910D
:1041000017028C1110C080911602D8120CC0E11059
:104110000AC09683C8010E940E1A87E0F501119229
:104120008A95E9F729CFC8010E941D0A882309F45E
:1041300028CFEE2009F425CF80911C02803210F2A6
:1041400020911602309117023A8329839C828B8238
:1041500090911A029D831E828F83CE010196B0CF6B
:10416000483C5105D0F6882309F40ECFFE2CEE20F2
:1041700009F407CF809117028C1120C0809116029C
:10418000D8121CC080911C0280FD0FC0982F907F18
:1041900061F08683903F31F0982F907F905F8F7011
:1041A000892B8683C8010E940E1A87E0F801A6E1D8
:1041B000B2E001900D928A95E1F7DECEC8010E942F
:1041C0001D0A81117FCF80911C02816080931C02A7
:1041D000C8010E940E1AD0CEABE1B0E0E2EFF0E2EF
:1041E0000C942A294E8B5F8B688F798F8A8F9B8FD7
:1041F000192F911110921F021D8A86E0FE017696FA
:10420000DE011F9601900D928A95E1F70A8D002339
:1042100041F021E04F85588969897A89C8010E9457
:10422000400A0B8B1C8B87E0FE013F96DE0118963F
:1042300001900D928A95E1F7CE0108960E94851FA4
:1042400081112AC087E0FE013896DE0111960190A7
:104250000D928A95E1F78C858823F1F020913A033D
:1042600030E0C90101968770992740917303481780
:104270001906E9F097E0929FD001939FB00D1124A9
:10428000A55CBC4FFE01319601900D929A95E1F725
:1042900080933A030E94260917E08091730390915E
:1042A0003A03891312C06B96E4E00C9446290E94ED
:1042B0008F1410923A031092730387E0E6E1F2E064
:1042C000DF011D928A95E9F7E7CF819FC001112494
:1042D000855C9C4F0E94851F882329F3809173037E
:1042E00090E001968770992780937303D6CFA6E05C
:1042F000B0E0EDE7F1E20C942A290E94A0048C01C1
:1043000080912B0290912C028017910781F01982E5
:104310001A820E94A004682F49815A81792F80E077
:1043200090E00E94EC2010932C0200932B02269622
:10433000E4E00C9446291F920F920FB60F921124BD
:104340002F933F934F935F936F937F938F939F939D
:10435000AF93BF93CF93DF93EF93FF93D091E90097
:10436000DF708091EC00C82FC17080FDC0E8109212
:10437000E9008091F000877F8093F00078940E949C
:10438000A5141092E9008091F00088608093F000FD
:10439000CD2BCF70C093E900FF91EF91DF91CF91CA
:1043A000BF91AF919F918F917F916F915F914F914D
:1043B0003F912F910F900FBE0F901F9018951F9255
:1043C0000F920FB60F9211242F933F934F935F9349
:1043D0006F937F938F939F93AF93BF93EF93FF93CD
:1043E0008091E10082FF09C08091E20082FF05C058
:1043F0008091E1008B7F8093E1008091DA0080FF63
:1044000024C08091D80080FF20C08091DA008E7F88
:104410008093DA008091D90080FF9DC080E189BD42
:1044200082E189BD09B400FEFDCF81E080933003B5
:1044300080912303811109C00E9425030E94C603B5
:104440008091E20084608093E2008091E10080FF2F
:1044500017C08091E20080FF13C08091E2008E7F40
:104460008093E2008091E20080618093E20080917D
:10447000D80080628093D80019BC85E08093300317
:104480008091E10084FF2BC08091E20084FF27C06F
:1044900080E189BD82E189BD89B5982F917080FF47
:1044A000FBCF8091D8008F7D8093D8008091E10070
:1044B0008F7E8093E1008091E2008F7E8093E20006
:1044C0008091E20081608093E20080913103882333
:1044D00009F447C084E080933003809130038091D9
:1044E000E10083FF27C08091E20083FF23C0809119
:1044F000E100877F8093E10082E080933003109297
:1045000031038091E1008E7F8093E1008091E20091
:104510008E7F8093E2008091E20080618093E200D0
:1045200042E060E080E00E9494038091F0008860A7
:104530008093F000FF91EF91BF91AF919F918F9188
:104540007F916F915F914F913F912F910F900FBE8F
:104550000F901F90189519BC1092300310922303EE
:1045600074CF8091E30087FD93E090933003B5CF43
:1045700078941F921FB61F9211248F939F93AF932D
:10458000BF9380911F0390912003A0912103B091CC
:1045900022030196A11DB11D80931F039093200358
:1045A000A0932103B0932203BF91AF919F918F916C
:1045B0001F901FBE1F9018951F921FB61F921124A7
:1045C0008F939F93AF93BF9380911E03811113C06C
:1045D00080911F0390912003A0912103B0912203A9
:1045E0004196A11DB11D80931F0390932003A093BA
:1045F0002103B0932203BF91AF919F918F911F90A0
:104600001FBE1F901895CDB7DEB72B970FB6F89445
:10461000DEBF0FBECDBF85B7806885BF85B7806818
:1046200085BF84B7877F84BF0FB6F894A895809123
:104630006000886180936000109260000FBE80E887
:1046400090E00FB6F89480936100909361000FBEE4
:1046500080EB96E09093EB018093EA010E942503A2
:104660000E94C6038091E20084608093E200789407
:10467000809130038823A1F01091E9001F70909180
:10468000EC00892F817090FD80E8182B1092E900D2
:104690008091E80083FD0E94A5141F701093E9002B
:1046A00082E084BD93E095BD9AEF97BD80936E0044
:1046B0001092690210926A0210926B0210926C02C0
:1046C0008091D80080618093D8002AE12A95F1F783
:1046D00000C08091D900182F117080FD04C00E9485
:1046E0002503109230031093160355985D988FE8B8
:1046F00091E00197F1F700C0000099B1292F2072D5
:1047000095FB882780F98093170380934701222324
:1047100009F461C01092620186E080936301809188
:10472000160381110E94BA279091470181E09827D2
:1047300090939C02A82FA91BA0936E029091470111
:1047400080939D029091470180936D028091470173
:10475000811106C087EF8093530186EF8093520149
:1047600020915301E22FE295EF70F0E061A12F70EC
:1047700081E090E0AC0101C0440F2A95EAF7342FA4
:104780003095362331A322A1242B22A3209152015C
:10479000E22FE295EF70F0E031A12F7001C0880F99
:1047A0002A95EAF7982F9095932391A392A1892BAC
:1047B00082A38FE891E00197F1F700C0000010910B
:1047C0009D026EE972E043E551E082E5E82E81E06A
:1047D000F82EFB012CC086E0809362019ECFDA01A7
:1047E0002D91AD01822F82958F7090E0DC01909623
:1047F0008C9190E02F7002C0959587952A95E2F7ED
:104800008170D7019D917D01292F22952F7030E075
:10481000D90190962C9130E09F7002C03595279574
:104820009A95E2F790E020FD92E0892B81938E2FFC
:10483000861B8117A0F28091470181112CC085E071
:10484000E8E6F1E0DE01179601900D928A95E1F716
:104850008F8180934201888580934301898580936D
:1048600044018A85809345018B858093460186E0CB
:10487000EDE6F1E0DE01119601900D928A95E1F7E7
:10488000FE013196ACE3B1E0CE01079621912D9364
:104890008E179F07D9F78091470195E0811190E02D
:1048A00090937A0285E0891B8093790202E411E0FB
:1048B00027E4E22E21E0F22EF80181918F018F3F53
:1048C00011F00E94B206E016F106B1F70CE311E018
:1048D00092E4E92E91E0F92ED8018D918D018F3F60
:1048E00011F00E94B206E016F106B1F78AE0E0E8A6
:1048F000F2E0DF01282F1D922A95E9F7EFE6F2E0BA
:10490000DF011D928A95E9F790E080E00E947D2A00
:10491000863E9E4F11F00E94461982E090E00E9470
:104920006F2A80938A0284E090E00E947D2A90930F
:104930007E0280937D0283E090E00E946F2A90E0E7
:104940000E94180A259A2D9882E88093800089E1B8
:10495000809381008FEF9FEF909387008093860074
:104960000E94CD190E94CD1980917F0281117CC0D7
:1049700090E080E00E947D2A863E9E4F21F00E94BA
:1049800046190E94851088E090E00E94772A4B012A
:104990005C0184E290E00E946F2A282F30E040E022
:1049A00050E060E070E080E090E000E20E94BA2910
:1049B000282939294A295B2920930D0330930E03B6
:1049C00040930F03509310036093110370931203ED
:1049D00080931303909314038091A90283608093C2
:1049E000A9022C7F89F50E94851088E090E00E9442
:1049F000772A6B017C0184E290E00E946F2A282FC5
:104A000030E040E050E060E070E080E090E00E9444
:104A1000BA29B22FA32FF42FE52F5B01970186014E
:104A2000BC29A12BFE29E32BB0930D03A0930E0309
:104A3000F0930F03E093100360931103B0921203FD
:104A400080931303909314030E940B060E940406A4
:104A500080910D0380FF05C060E0869586950E94D9
:104A6000101081E080937F0280911603811102C0B3
:104A70000E94BD2788E491E090931B0380931A0362
:104A800018E1612E712C0AE8C02E02E0D02E84E0DD
:104A9000A82EB12C8091300300E112E1853009F499
:104AA00082C00E947B120BE812E0B0E8EB2EB2E06D
:104AB000FB2ED701F80191918D9122E0E539F207A3
:104AC00009F47DC09817B9F320901603912CD701F3
:104AD0008D907D01F80131908F01381431F1512C06
:104AE000442443943824832D8421B9F02220A9F052
:104AF00059829A820E94A0049C838B83F1E0FD83FB
:104B000091E0882D842109F490E09E8349815A81A7
:104B10006B817C818D810E94EC205394440C26E0B3
:104B20005212E1CFF8013197808293944AE09412B7
:104B3000CECF0E94C90647C080913003843029F14E
:104B400080E00E94E40510921E03F0E40FB6F89492
:104B5000A895609260000FBEF093600083B7817FDC
:104B6000846083BF83B7816083BF7894889583B75F
:104B70008E7F83BF0FB6F894A895809160008861FE
:104B800080936000109260000FBE80912F038823F5
:104B900051F00E947B12E0E8F2E0819181117CC12A
:104BA000CE16DF06D1F780913003853009F4C4CFEB
:104BB0000E948F140E94CD190E941C0572CF981379
:104BC00083CF0E9477218091A802882309F465C0D1
:104BD0008091A702E0910D03E695E695E81BE0932E
:104BE000A302823009F06FC0F0E0E356FD4FE4917C
:104BF0000E2F10E0ACE8EA2EADE0FA2E8091A40270
:104C0000882361F01092A4020E94E3069093A2020E
:104C10008093A1021092A6021092A5020E94E306C0
:104C2000E091A102F091A2029C012E1B3F0B2F3FAD
:104C30003F4798F5209197022223B1F010929702F6
:104C40002091950230919602821B930B8F3F9F47D4
:104C500058F4205D3A483093960220939502809153
:104C6000A90288608093A9028090A5029090A60274
:104C7000E00FF11FF093A202E093A10281EA92E01B
:104C8000F70109958091A5029091A602892B29F43C
:104C9000892819F081E080939702E12C912C809172
:104CA0009D02E81608F47BC091100E941C090E9426
:104CB0001C059091A002891709F4ECCE8093A00204
:104CC0000E949404E7CE863059F4F0E0E656FD4F9A
:104CD000E4910E2F10E0FCE7EF2EFDE0FF2E8ECFCB
:104CE000893061F4E695F0E0E956FD4FE4910E2F2E
:104CF00010E0E5EDEE2EECE0FE2E80CF8F3061F47B
:104D0000E695F0E0EC56FD4FE4910E2F10E07AE4CA
:104D1000E72E7CE0F72E72CF853159F4F0E0EF56A4
:104D2000FD4FE4910E2F10E065ECE62E6BE0F62EC1
:104D300065CF08E210E033E4E32E3BE0F32E883148
:104D400009F45CCF833249F4EFE8F2E00591149165
:104D50005BE2E52E5DE0F52E51CF04EF11E026E099
:104D6000E22E2BE0F22E843209F448CF00ED17E05A
:104D70009FE7E92E94E0F92E853209F03FCF8E2F80
:104D800063E00E946329E92FF0E0E457FD4FE491CE
:104D90000E2F10E048EFE42E4DE0F42E2FCF0E2D15
:104DA00010E0F801ED5AFE4F8081E82FE295EF7098
:104DB000F0E0E0A1F0E08F7002C0F595E7958A95EC
:104DC000E2F7E170D801AE5ABE4F2C91A22FA29506
:104DD000AF70B0E090968C9190E02F7002C09595E6
:104DE00087952A95E2F780FD4FC080E08E2BD80191
:104DF000A256BD4FEC919E2F9370891709F442C0C3
:104E0000EE0FEE0FE82BEC93F0909C02FE0CEF708F
:104E1000F0E0E255FE4F06561D4F8081D8019C916F
:104E2000890F8C93812C84307CF0EF2DF0E0E856D4
:104E3000FD4F80818F5F808380901603882031F141
:104E400060E08F2D0E94D418F80180818D3F7CF4A2
:104E5000EF2DF0E0E856FD4F8081815080838090F7
:104E600016038820B1F061E08F2D0E94D418D8017C
:104E70008C91082E000C990BB5010E949129F80124
:104E800080839828E3940BCF82E0B0CF882483946A
:104E9000DBCF88248394EBCF09BD19BD09B400FE94
:104EA000FDCF8091D8008F7D8093D8008091E00065
:104EB00082608093E0008091E00081FDFCCF0E9441
:104EC0008F1471CE8EE1489B02C08150E1F7489B60
:104ED000FECF0895589880E28A95F1F7589A089580
:104EE000FC013BE03A95F1F798E020E080E031E00A
:104EF00040E14A95F1F7880F489B02C08160232763
:104F000042E04A95F1F7000040E14A95F1F79150EF
:104F100079F790E19A95F1F799B132E03A95F1F786
:104F2000000040E14A95F1F7917092272081920F9D
:104F300090830895A1E0B0E0E0EAF7E20C9428291C
:104F400019828C017C01E60EF11C0E151F0541F43F
:104F500081E09981911180E02196E6E00C9444294A
:104F60000E946227CE0101960E947027F80181936A
:104F70008F01EBCF509A589A08955098589AE89A12
:104F8000E9E6F0E080818C7F808308956150770BA3
:104F900091E001C0990F6A95EAF720E031E09111A4
:104FA00008C0222391F0589A80E28A95F1F7589828
:104FB0000895492F482339F0589A232740E24A950B
:104FC000F1F79695ECCF5898F9CF5898EDCFFF921E
:104FD0000F931F93CF93DF93EC018C01060F111DEC
:104FE000C017D10729F4CDB7DEB7E5E00C94452909
:104FF000F9900E946A2768E08F2D0E94C627F0CFA3
:105000001F920F920FB60F9211240F931F932F939D
:105010003F934F935F936F937F938F939F93AF9340
:10502000BF93EF93FF93CF93DF930F92CDB7DEB78C
:1050300019820E946227CE0101960E947027082FD4
:10504000069506950695282F22952570902F957028
:10505000290F922F937026952695920F9827977077
:105060008981982B09F05CC0083008F059C080E1B4
:105070008A95F1F7589A509A82E08A95F1F700C024
:10508000589888E0089F80011124D801AC5FBE4F7A
:105090001696ED91FC9117973097A9F06091AC01AD
:1050A0007091AD0114962D913C911597260F371FE5
:1050B00011968D919C911297680F791F13964C91C0
:1050C00013978C910995F801EC5FFE4F638166237D
:1050D00051F02091AC013091AD0184819581820F16
:1050E000931F0E94E7270E946A2780E18A95F1F7C3
:1050F00058985098589A80E18A95F1F7F801EC5F3A
:10510000FE4F6081662351F02091AC013091AD01DA
:1051100081819281820F931F0E949A270E946227A9
:105120000F90DF91CF91FF91EF91BF91AF919F9140
:105130008F917F916F915F914F913F912F911F912F
:105140000F910F900FBE0F901F9018950F931F9304
:10515000CF93DF93EC0108970CF04CC0F894509A71
:10516000589885E08A95F1F700009C2F96959570E8
:105170008C2F8570980F892F83709695969523E0D4
:10518000CC0FDD1F2A95E1F7980F8E01092B0E94A5
:105190006A2700C068E0802F0E94C62780E18A95B8
:1051A000F1F75098589A489B1EC087E090E04899C4
:1051B0001CC0FE01EC5FFE4F63816623F9F0209175
:1051C000AC013091AD0184819581820F931F0E94C3
:1051D0009A27811113C0509A589A7894DF91CF91F1
:1051E0001F910F91089500C0DECF019729F4509AC6
:1051F000589A789480E0F2CF00C0D9CF0E946227FD
:1052000080E28A95F1F75898509A80E18A95F1F7F3
:10521000CC5FDE4F6881662351F02091AC01309164
:10522000AD0189819A81820F931F0E94E7270E9416
:105230006A27789481E0D2CF2F923F924F925F926B
:105240006F927F928F929F92AF92BF92CF92DF9296
:10525000EF92FF920F931F93CF93DF93CDB7DEB7FB
:10526000CA1BDB0B0FB6F894DEBF0FBECDBF09948F
:105270002A88398848885F846E847D848C849B84E6
:10528000AA84B984C884DF80EE80FD800C811B81F4
:10529000AA81B981CE0FD11D0FB6F894DEBF0FBE23
:1052A000CDBFED010895DB018F939F930E94E62A05
:1052B000BF91AF91A29F800D911DA39F900DB29FB2
:1052C000900D11240895991B79E004C0991F961739
:1052D00008F0961B881F7A95C9F78095089587FB7B
:1052E000082E062687FD819567FD61950E9463293A
:1052F0000EF4919507FC81950895AA1BBB1B51E103
:1053000007C0AA1FBB1FA617B70710F0A61BB70B35
:10531000881F991F5A95A9F780959095BC01CD01DA
:10532000089597FB072E16F4009407D077FD09D057
:105330000E947D2907FC05D03EF4909581959F4FF2
:105340000895709561957F4F0895EE0FFF1F0590AA
:10535000F491E02D09940E941B2B332312F48A1B35
:105360009B0B0C94B5290E941B2BB7FF0895821B41
:10537000930B0895002E083090F0982F872F762FEA
:10538000652F542F432F322F22270850F4CF220F9E
:10539000331F441F551F661F771F881F991F0A95CB
:1053A000B2F7002D089597FD1094002E083098F064
:1053B0000850232F342F452F562F672F782F892FF2
:1053C000912DF4CF15949795879577956795579577
:1053D0004795379527950A95AAF71124002D08952A
:1053E0008F929F92AF92BF92CF92DF92EF92FF92F5
:1053F000CF93DF93EC01688179818A819B8161156C
:1054000071058105910521F464E279ED8BE597E062
:105410002DE133EF41E050E00E94C72A49015A01D3
:105420009B01AC01A7EAB1E40E94E62A6B017C0172
:10543000ACEEB4EFA50194010E94F42ADC01CB018B
:105440008C0D9D1DAE1DBF1DB7FF03C00197A109A7
:10545000B04888839983AA83BB839F77DF91CF91DC
:10546000FF90EF90DF90CF90BF90AF909F908F9084
:1054700008950E94F029089580E091E00E94F029AB
:105480000895B0E0A0E08093000190930101A09303
:105490000201B09303010895FC014150504030F0E7
:1054A00001900616D1F73197CF01089588279927E3
:1054B0000895FB01DC0104C08D910190801921F455
:1054C00041505040C8F7881B990B0895FB01DC013F
:1054D00002C001900D9241505040D8F70895F999BB
:1054E000FECF92BD81BDF89A992780B50895A6E1B7
:1054F000B0E044E050E00C94B92AA8E1B0E042E00A
:1055000050E00C94B92ADC01A40FB51F4150504063
:1055100048F0CB01840F951F2E910E94942A415090
:105520005040D0F70895262FF999FECF92BD81BD46
:10553000F89A019700B4021639F01FBA20BD0FB6D1
:10554000F894FA9AF99A0FBE08950396272F0E94AD
:10555000942A0E94932A252F0E94942A242F0C9487
:10556000942A0196272F0E94942A0C94932ADC01F6
:10557000CB01FC01F999FECF06C0F2BDE1BDF89A5E
:10558000319600B40D9241505040B8F70895052E61
:1055900097FB1EF400940E94DE2A57FD07D00E945C
:1055A000F92A07FC03D04EF40C94DE2A509540955E
:1055B000309521953F4F4F4F5F4F089590958095BF
:1055C000709561957F4F8F4F9F4F08950E941B2BC1
:1055D000A59F900DB49F900DA49F800D911D112447
:1055E0000895B7FF0C94E62A0E94E62A821B930BCB
:1055F0000895A1E21A2EAA1BBB1BFD010DC0AA1F14
:10560000BB1FEE1FFF1FA217B307E407F50720F02B
:10561000A21BB30BE40BF50B661F771F881F991FA6
:105620001A9469F760957095809590959B01AC01EF
:10563000BD01CF010895A29FB001B39FC001A39FF8
:10564000700D811D1124911DB29F700D811D1124BB
:10565000911D0895F894FFCF8415AC154417AC152F
:105660004417DF1500164417FD160A17C61ACA1A82
:10567000BB1AC21ACE1AD21AD61A2C1BA11B341B63
:10568000FE1A021B381B061B3C1B481B121B9A1BD5
:10569000161B4C1B1A1B501B781B1E1B541B7F1BFD
:1056A000241B5A1B621B0A1B401B0E1B441B281B7E
:1056B0005E1B6E1B881B981BF81A301BA81BC61C90
:1056C000C61CFF1CFF1CA81D271D271D271DC41D50
:1056D0004C1E5B1E5B1EB31BDD1BE41BE91BEE1B9C
:1056E000F31BF81BFD1B021C071C0C1C111C131CBC
:1056F000181C1B1C1E1C211C241C261C291C2B1CBA
:105700000100000000000001000000000000000592
:105710000100000000000001060000000000000180
:10572000070000000408000000000000010C000059
:10573000000000000B0D000000000000F1F4939247
:10574000379431F0F5F6F7018204A70A810480044A
:10575000A00A333201191A1B1C1D1E1F2021220111
:105760000201000C000C0C01313292F1F494979379
:1057700037F033818283E200E900EA00B500B60029
:10578000B700CD008301CC008A019201940121026F
:10579000230224022502260227022A02B300B400B3
:1057A0006F0070009F01CB019F02A002440200FF26
:1057B0000100010000FFFF0000010001FF000001E7
:1057C000020202020606060909090909090F0F0F5C
:1057D0000F0F0F1515151819191919191919191964
:0A57E0001923242525252525250081
:00000001FF
